:020000040800F2
:1000000000000220AD770008117700081F77000874
:10001000257700082B7700083177000800000000E2
:100020000000000000000000000000002150000857
:10003000377700080000000061520008C95200082C
:10004000FD770008FD770008FD770008FD770008C0
:10005000FD770008FD770008FD770008FD770008B0
:10006000FD770008FD770008FD770008FD770008A0
:10007000FD770008FD770008FD770008FD77000890
:1000800045770008FD770008FD770008FD77000838
:10009000FD770008FD770008FD770008FD77000870
:1000A000FD770008FD770008FD770008FD77000860
:1000B000FD770008FD770008FD770008FD77000850
:1000C000FD770008FD770008FD770008FD77000840
:1000D00059770008FD770008FD770008FD770008D4
:1000E000FD770008FD770008FD770008FD77000820
:1000F000FD770008FD770008FD770008FD77000810
:10010000FD770008FD770008FD770008FD770008FF
:10011000FD770008FD7700086D770008FD7700087F
:10012000FD770008FD770008FD770008FD770008DF
:10013000FD770008FD770008FD770008FD770008CF
:10014000FD770008FD770008FD770008FD770008BF
:10015000FD770008FD770008FD770008FD770008AF
:10016000FD770008FD770008FD770008FD7700089F
:10017000FD770008FD770008FD770008000000000B
:08018000FD770008FD7700087F
:1001900010B5054C237833B9044B13B10448AFF3C1
:1001A00000800123237010BD140000200000000017
:1001B0007078000808B5034B1BB103490348AFF33F
:1001C000008008BD000000001800002070780008C2
:1001D00053B94AB9002908BF00281CBF4FF0FF31AE
:1001E0004FF0FF3000F07AB9ADF1080C6DE904CEA4
:1001F00000F006F8DDF804E0DDE9022304B0704702
:100200002DE9F0478C460D460446089E002B51D13F
:100210008A4217466DD9B2FA82FEBEF1000F0BD0AA
:10022000CEF1200C01FA0EF520FA0CFC02FA0EF7C2
:100230004CEA050C00FA0EF44FEA174A250CBCFBF9
:10024000FAF81FFA87F90AFB18CC45EA0C4508FBB7
:1002500009F3AB420AD9ED1908F1FF3280F023818E
:10026000AB4240F22081A8F102083D44ED1AA4B24D
:10027000B5FBFAF00AFB105544EA054400FB09F906
:10028000A14509D9E41900F1FF3380F00A81A145A5
:1002900040F2078102383C44A4EB090440EA0840DC
:1002A0000021002E61D024FA0EF400233460736024
:1002B000BDE8F0878B4207D9002E54D0002186E894
:1002C00021000846BDE8F087B3FA83F1002940F029
:1002D0008E80AB4202D3824200F2FA80841A65EB30
:1002E00003050120AC46002E3FD086E81010BDE883
:1002F000F08712B90127B7FBF2F7B7FA87FEBEF114
:10030000000F34D1EB1B3A0C1FFA87FC0121B3FB21
:10031000F2F8250C02FB183345EA03450CFB08F301
:10032000AB4207D9ED1908F1FF3002D2AB4200F21F
:10033000D1808046ED1AA3B2B5FBF2F002FB105556
:1003400043EA05440CFB00FCA44507D9E41900F17D
:10035000FF3302D2A44500F2B8801846A4EB0C0487
:1003600040EA08409DE731463046BDE8F087CEF1CF
:10037000200405FA0EF307FA0EF720FA04F83A0CF7
:1003800025FA04F448EA0308B4FBF2F14FEA1845F1
:1003900002FB11441FFA87FC45EA044501FB0CF3FC
:1003A000AB4200FA0EF409D9ED1901F1FF3080F0EB
:1003B0008A80AB4240F2878002393D44EB1A1FFA33
:1003C00088F5B3FBF2F002FB103345EA034500FB6E
:1003D0000CF3AB4207D9ED1900F1FF386FD2AB42F5
:1003E0006DD902383D44EB1A40EA01418FE7C1F173
:1003F000200722FA07F88B4005FA01F448EA0303C4
:1004000020FA07FE4FEA134CFD404EEA040EB5FBFE
:10041000FCF94FEA1E440CFB19551FFA83F844EA15
:10042000054509FB08F4AC4202FA01F200FA01FAB0
:1004300008D9ED1809F1FF3043D2AC4241D9A9F1F6
:1004400002091D442D1B1FFA8EFEB5FBFCF00CFBB0
:1004500010554EEA054400FB08F8A04507D9E418FA
:1004600000F1FF3529D2A04527D902381C4440EAC3
:100470000940A4EB0804A0FB02894C45C6464D4642
:1004800015D312D056B1BAEB0E0364EB050404FA8F
:1004900007F7CB401F43CC40376074600021BDE8B4
:1004A000F0871846F8E69046E0E6C245EAD2B8EB97
:1004B000020E69EB03050138E4E72846D7E740461A
:1004C00091E78146BEE7014678E702383C4445E7BC
:1004D000084608E7A8F102083D442BE7704700BF33
:1004E00080B500AF0E4A0E4B1B6843F400731360D7
:1004F0000B4A0B4B1B6843F480631360084A084B9C
:100500001B6843F480731360032000F0F8F80020A8
:1005100007F0A4F806F0DEFE0023184680BD00BFF9
:10052000003C024080B400AF064B1B781A46064BD5
:100530001B681344044A136000BFBD465DF8047B8A
:10054000704700BF040000200854002080B400AFB2
:10055000034B1B681846BD465DF8047B704700BF1F
:100560000854002080B584B000AF7860FFF7EEFF3C
:10057000B8607B68FB60FB68B3F1FF3F05D0094BB7
:100580001B781A46FB681344FB6000BFFFF7DEFFD1
:100590000246BB68D21AFB689A42F7D300BF1037F5
:1005A000BD4680BD0400002080B485B000AF7860F7
:1005B0007B6803F00703FB600C4BDB68BB60BA6829
:1005C0004FF6FF031340BB60FB681A02BB6813437E
:1005D00043F0BF6343F40033BB60044ABB68D3609D
:1005E00000BF1437BD465DF8047B704700ED00E0A6
:1005F00080B400AF044BDB681B0A03F00703184606
:10060000BD465DF8047B704700ED00E080B483B028
:1006100000AF0346FB7197F90730002B0BDB09494C
:1006200097F907305B09FA7902F01F02012000FAFE
:1006300002F241F8232000BF0C37BD465DF8047B71
:10064000704700BF00E100E080B483B000AF034614
:100650003960FB7197F90730002B0ADB0D4997F9D8
:1006600007303A68D2B21201D2B20B4483F80023A9
:100670000AE00949FB7903F00F03043B3A68D2B260
:100680001201D2B20B441A7600BF0C37BD465DF89A
:10069000047B704700E100E000ED00E080B489B029
:1006A00000AFF860B9607A60FB6803F00703FB6194
:1006B000FB69C3F10703042B28BF0423BB61FB695B
:1006C0000433062B02D9FB69033B00E000237B6166
:1006D0000122BB6902FA03F35A1EBB681A407B6908
:1006E0009A4001217B6901FA03F3591E7B680B4094
:1006F000134318462437BD465DF8047B704780B528
:1007000082B000AF78607868FFF74EFF00BF08370F
:10071000BD4680BD80B586B000AF0346B9607A6043
:10072000FB7300237B61FFF763FF78617A68B96828
:100730007869FFF7B3FF024697F90F301146184664
:10074000FFF782FF00BF1837BD4680BD80B582B07D
:1007500000AF0346FB7197F907301846FFF756FFC5
:1007600000BF0837BD4680BD80B586B000AF786059
:1007700000237B61FFF7EAFE38617B68002B01D123
:10078000012399E07B68002283F834207B680222F1
:1007900083F835207B681B687A681268126822F03B
:1007A00001021A600FE0FFF7D1FE02463B69D31A3F
:1007B000052B08D97B6820225A657B68032283F8C1
:1007C0003520032378E07B681B681B6803F0010376
:1007D000002BE8D17B681B681B687B617A69384B0A
:1007E00013407B617B685A687B689B681A437B680F
:1007F000DB681A437B681B691A437B685B691A4391
:100800007B689B691A437B68DB691A437B681B6AB8
:1008100013437A6913437B617B685B6A042B07D1BE
:100820007B68DA6A7B681B6B13437A6913437B61CD
:100830007B681B687A691A607B681B685B697B61EF
:100840007B6923F007037B617B685B6A7A691343EA
:100850007B617B685B6A042B17D17B689B6A7A6932
:1008600013437B617B68DB6A002B0ED0786800F055
:100870005FFB0346002B08D07B6840225A657B68EB
:10088000012283F83520012316E07B681B687A6912
:100890005A61786800F016FB0346FB607B68DB6DED
:1008A0003F229A40FB689A607B6800225A657B6809
:1008B000012283F83520002318461837BD4680BD35
:1008C0003F8010F080B584B000AF78607B68002B6B
:1008D00001D1012350E07B6893F83530DBB2022B65
:1008E00001D1022348E07B681B687A6812681268AD
:1008F00022F001021A607B681B6800221A607B6884
:100900001B6800225A607B681B6800229A607B6823
:100910001B680022DA607B681B6800221A617B6812
:100920001B6821225A61786800F0CCFA0346FB600C
:100930007B680022DA637B6800221A647B680022ED
:100940005A647B6800229A647B680022DA647B68C0
:1009500000221A657B68DB6D3F229A40FB689A6033
:100960007B6800225A657B68002283F835207B680B
:10097000002283F83420002318461037BD4680BD7E
:1009800080B586B000AFF860B9607A603B60002344
:10099000FB75FB689B6D3B61FB6893F83430012B62
:1009A00001D1022340E0FB68012283F83420FB6878
:1009B00093F83530DBB2012B2FD1FB68022283F88C
:1009C0003520FB6800225A653B687A68B968F86888
:1009D00000F04AFAFB68DB6D3F229A403B699A605F
:1009E000FB681B68FA681268126842F016021A6007
:1009F000FB681B6C002B07D0FB681B68FA68126849
:100A0000126842F008021A60FB681B68FA681268F4
:100A1000126842F001021A6005E0FB68002283F8C8
:100A200034200223FB75FB7D18461837BD4680BD78
:100A300080B584B000AF78607B689B6DFB60FFF78A
:100A400085FDB8607B6893F83530DBB2022B08D0A7
:100A50007B6880225A657B68002283F8342001235A
:100A600052E07B681B687A681268126822F01602EE
:100A70001A607B681B687A681268526922F08002EB
:100A80005A617B681B6C002B03D17B689B6C002B2D
:100A900007D07B681B687A681268126822F0080227
:100AA0001A607B681B687A681268126822F001027B
:100AB0001A6013E0FFF74AFD0246BB68D31A052B04
:100AC0000CD97B6820225A657B68002283F8342089
:100AD0007B68032283F83520032315E07B681B68BD
:100AE0001B6803F00103002BE4D17B68DB6D3F2220
:100AF0009A40FB689A607B68002283F834207B6808
:100B0000012283F83520002318461037BD4680BDEA
:100B100080B483B000AF78607B6893F83530DBB287
:100B2000022B04D07B6880225A6501230CE07B688D
:100B3000052283F835207B681B687A681268126882
:100B400022F001021A60002318460C37BD465DF8FA
:100B5000047B704780B586B000AF78600023BB602F
:100B6000924B1B68924AA2FB03239B0A7B617B6822
:100B70009B6D3B613B691B68FB607B68DB6D0822FA
:100B80009A40FB681340002B1AD07B681B681B68D7
:100B900003F00403002B13D07B681B687A6812688B
:100BA000126822F004021A607B68DB6D08229A400A
:100BB0003B699A607B685B6D43F001027B685A6514
:100BC0007B68DB6D01229A40FB681340002B12D03A
:100BD0007B681B685B6903F08003002B0BD07B688C
:100BE000DB6D01229A403B699A607B685B6D43F044
:100BF00002027B685A657B68DB6D04229A40FB68C1
:100C00001340002B12D07B681B681B6803F00203A3
:100C1000002B0BD07B68DB6D04229A403B699A6005
:100C20007B685B6D43F004027B685A657B68DB6D13
:100C300010229A40FB681340002B43D07B681B684E
:100C40001B6803F00803002B3CD07B68DB6D10228F
:100C50009A403B699A607B681B681B6803F4802399
:100C6000002B18D07B681B681B6803F40023002B43
:100C700008D17B681B6C002B24D07B681B6C7868C8
:100C800098471FE07B689B6C002B1BD07B689B6C9C
:100C90007868984716E07B681B681B6803F48073CC
:100CA000002B07D17B681B687A681268126822F0F3
:100CB00008021A607B681B6C002B03D07B681B6CDE
:100CC000786898477B68DB6D20229A40FB68134068
:100CD000002B00F08E807B681B681B6803F01003FC
:100CE000002B00F086807B68DB6D20229A403B69F8
:100CF0009A607B6893F83530DBB2052B36D17B6880
:100D00001B687A681268126822F016021A607B6803
:100D10001B687A681268526922F080025A617B6807
:100D20001B6C002B03D17B689B6C002B07D07B686E
:100D30001B687A681268126822F008021A607B68E1
:100D4000DB6D3F229A403B699A607B68002283F802
:100D500034207B68012283F835207B681B6D002BD3
:100D60007DD07B681B6D7868984778E07B681B684E
:100D70001B6803F48023002B1CD07B681B681B6856
:100D800003F40023002B08D17B685B6C002B30D070
:100D90007B685B6C786898472BE07B68DB6B002B8B
:100DA00027D07B68DB6B7868984722E01000002032
:100DB000B5814E1B7B681B681B6803F48073002B96
:100DC0000FD17B681B687A681268126822F01002E3
:100DD0001A607B68002283F834207B68012283F844
:100DE00035207B68DB6B002B03D07B68DB6B78687E
:100DF00098477B685B6D002B32D07B685B6D03F09E
:100E00000103002B22D07B68052283F835207B6804
:100E10001B687A681268126822F001021A60BB68C7
:100E20000133BB607A69934207D87B681B681B68F3
:100E300003F00103002BF2D100E000BF7B68002229
:100E400083F834207B68012283F835207B68DB6CD3
:100E5000002B05D07B68DB6C7868984700E000BF0A
:100E60001837BD4680BD00BF80B485B000AFF860C4
:100E7000B9607A603B60FB681B68FA6812681268A8
:100E800022F480221A60FB681B683A685A60FB688B
:100E90009B68402B08D1FB681B687A689A60FB68E6
:100EA0001B68BA68DA6007E0FB681B68BA689A607A
:100EB000FB681B687A68DA6000BF1437BD465DF8CE
:100EC000047B704780B485B000AF78607B681B6896
:100ED000DBB2103B144AA2FB03231B09FB60134A3D
:100EE000FB6813441B781A467B68DA65FB68032BA2
:100EF00009D97B681B6823F47F7323F003031A1D51
:100F00007B689A6507E07B681B6823F47F7323F096
:100F100003037A6893657B689B6D18461437BD465A
:100F20005DF8047B704700BFABAAAAAAD07800087E
:100F300080B485B000AF78600023FB737B689B6A48
:100F4000BB607B689B69002B1FD1BB68032B55D806
:100F500001A252F823F000BF690F00087B0F0008C0
:100F6000690F0008FD0F00087B68DB6A03F08073DF
:100F7000002B45D00123FB7342E07B68DB6AB3F1B1
:100F8000C07F3FD10123FB733CE07B689B69B3F5D5
:100F9000005F21D1BB68032B36D801A252F823F0A1
:100FA000B10F0008B70F0008B10F0008C90F000803
:100FB0000123FB732FE07B68DB6A03F08073002B57
:100FC00024D00123FB7321E07B68DB6AB3F1C07F8F
:100FD0001ED10123FB731BE0BB68022B02D9032B3C
:100FE00003D018E00123FB7315E07B68DB6A03F094
:100FF0008073002B0ED00123FB730BE000BF0AE0CF
:1010000000BF08E000BF06E000BF04E000BF02E050
:1010100000BF00E000BFFB7B18461437BD465DF8FB
:10102000047B704780B489B000AF786039600023DA
:101030007B6100233B610023BB610023FB616BE10B
:101040000122FB6902FA03F37B613B681A687B6942
:1010500013403B613A697B699A4240F05A813B6890
:101060005B68012B0BD03B685B68022B07D03B68A9
:101070005B68112B03D03B685B68122B30D17B6817
:101080009B68BB61FB695B00032202FA03F3DB434D
:10109000BA691340BB613B68DA68FB695B0002FA1E
:1010A00003F3BA691343BB617B68BA699A607B68D2
:1010B0005B68BB610122FB6902FA03F3DB43BA6997
:1010C0001340BB613B685B681B0903F00102FB69CD
:1010D00002FA03F3BA691343BB617B68BA695A60C9
:1010E0007B68DB68BB61FB695B00032202FA03F3E8
:1010F000DB43BA691340BB613B689A68FB695B00DC
:1011000002FA03F3BA691343BB617B68BA69DA6018
:101110003B685B68022B03D03B685B68122B23D1D2
:10112000FB69DA087B68083253F82230BB61FB693F
:1011300003F007039B000F2202FA03F3DB43BA69B3
:101140001340BB613B681A69FB6903F007039B000E
:1011500002FA03F3BA691343BB61FB69DA087B68DF
:101160000832B96943F822107B681B68BB61FB69D0
:101170005B00032202FA03F3DB43BA691340BB614D
:101180003B685B6803F00302FB695B0002FA03F350
:10119000BA691343BB617B68BA691A603B685B68D4
:1011A00003F08053002B00F0B4800023FB605F4A03
:1011B0005E4B5B6C43F4804353645C4B5B6C03F4A9
:1011C0008043FB60FB685A4AFB699B08023352F874
:1011D0002330BB61FB6903F003039B000F2202FA7B
:1011E00003F3DB43BA691340BB617B68514A934206
:1011F0002BD07B68504A934225D07B684F4A93425C
:101200001FD07B684E4A934219D07B684D4A934267
:1012100013D07B684C4A93420DD07B684B4A934273
:1012200007D07B684A4A934201D107230EE0082386
:101230000CE006230AE0052308E0042306E003236C
:1012400004E0022302E0012300E00023FA6902F037
:10125000030292009340BA691343BB613449FB69AE
:101260009B080233BA6941F823203A4B1B68BB61E3
:101270003B69DB43BA691340BB613B685B6803F4BD
:101280008033002B03D0BA693B691343BB61314AF9
:10129000BB6913602F4B5B68BB613B69DB43BA6979
:1012A0001340BB613B685B6803F40033002B03D041
:1012B000BA693B691343BB61264ABB695360254B3E
:1012C0009B68BB613B69DB43BA691340BB613B6808
:1012D0005B6803F48013002B03D0BA693B691343A6
:1012E000BB611C4ABB6993601A4BDB68BB613B69FD
:1012F000DB43BA691340BB613B685B6803F40013CE
:10130000002B03D0BA693B691343BB61114ABB6927
:10131000D360FB690133FB61FB690F2B7FF690AE55
:1013200000BF2437BD465DF8047B7047003802409B
:101330000038014000000240000402400008024062
:10134000000C02400010024000140240001802404D
:10135000001C0240003C014080B487B000AF7860C0
:10136000396000233B610023FB600023BB60002346
:101370007B61CEE001227B6902FA03F33B613A68AC
:101380003B691340FB60FA683B699A4240F0BE80BB
:10139000654A7B699B08023352F82330BB607B6946
:1013A00003F003039B000F2202FA03F3BA68134011
:1013B000BB607B685D4A93422BD07B685C4A93425A
:1013C00025D07B685B4A93421FD07B685A4A934280
:1013D00019D07B68594A934213D07B68584A93428C
:1013E0000DD07B68574A934207D07B68564A934298
:1013F00001D107230EE008230CE006230AE00523B1
:1014000008E0042306E0032304E0022302E00123B2
:1014100000E000237A6902F00302920003FA02F26C
:10142000BB689A4232D14949484B1A68FB68DB4392
:1014300013400B604549454B5A68FB68DB4313403A
:101440004B604249414B9A68FB68DB4313408B6019
:101450003E493E4BDA68FB68DB431340CB607B6957
:1014600003F003039B000F2202FA03F3BB602E4834
:101470007B699B082C497A699208023251F8221044
:10148000BA68D2430A40023340F823207B681A68C6
:101490007B695B00032101FA03F3DB431A407B689D
:1014A0001A607B69DA087B69D9087B68083153F8D0
:1014B00021107B6903F007039B000F2000FA03F360
:1014C000DB4319407B68083243F822107B68DA68F6
:1014D0007B695B00032101FA03F3DB431A407B685D
:1014E000DA607B685A6801217B6901FA03F3DB4308
:1014F0001A407B685A607B689A687B695B000321AD
:1015000001FA03F3DB431A407B689A607B6901337D
:101510007B617B690F2B7FF62DAF00BF1C37BD466B
:101520005DF8047B704700BF0038014000000240B6
:101530000004024000080240000C0240001002407B
:101540000014024000180240001C0240003C014010
:1015500080B483B000AF78600B467B8013467B700D
:101560007B78002B03D07A887B689A6103E07B88C4
:101570001A047B689A6100BF0C37BD465DF8047B96
:10158000704780B483B000AF78600B467B807B6887
:101590005A697B881A407B889A4204D17B881A0456
:1015A0007B689A6102E07A887B689A6100BF0C3799
:1015B000BD465DF8047B704790B585B000AF78609C
:1015C0007B68002B01D101231FE17B6893F83D303C
:1015D000DBB2002B06D17B68002283F83C207868C0
:1015E00005F0A4FE7B68242283F83D207B681B68FD
:1015F0007A681268126822F001021A607B681B6820
:101600007A681268126842F400421A607B681B68AC
:101610007A681268126822F400421A6002F00AFA2C
:10162000F8607B685B687B4A934207D8FB687A4A1C
:10163000934294BF01230023DBB206E0FB68774AA4
:10164000934294BF01230023DBB2002B01D001237E
:10165000DBE0FB68724AA2FB03239B0CBB607B6848
:101660001B687A681268526822F03F01BA680A4320
:101670005A607B681A687B681B681B6A23F03F010D
:101680007B685B686348834202D8BB68013309E02A
:10169000BB684FF4967000FB03F36248A0FB0303A2
:1016A0009B0901330B4313627B6818687B681B68D6
:1016B000DB6923F44F4222F0FF027B685B685549E7
:1016C0008B420DD8FB68591E7B685B685B00B1FBE1
:1016D000F3F30133C3F30B03042B38BF04234FE0B0
:1016E0007B689B68002B11D1FB685C1E7B68596886
:1016F0000B465B000B44B4FBF3F30133C3F30B0362
:10170000002B0CBF01230023DBB212E0FB685C1E40
:101710007B6859680B469B000B4499000B44B4FB53
:10172000F3F30133C3F30B03002B0CBF012300239E
:10173000DBB2002B01D0012322E07B689B68002BE9
:101740000ED1FB685C1E7B6859680B465B000B443E
:10175000B4FBF3F30133C3F30B0343F400430FE093
:10176000FB685C1E7B6859680B469B000B44990024
:101770000B44B4FBF3F30133C3F30B0343F44043D3
:101780001343C3617B681B687A681268126822F091
:10179000C0017A68D0697A68126A02430A431A6003
:1017A0007B681A687B681B689B6823F4034323F0FB
:1017B000FF03796808697968C96801430B4393603E
:1017C0007B681B687A681268D26822F0FF017A6829
:1017D00050697A68926902430A43DA607B681B6841
:1017E0007A681268126842F001021A607B6800226F
:1017F0001A647B68202283F83D207B6800221A63EC
:101800007B68002283F83E20002318461437BD462B
:1018100090BD00BFA08601007F841E00FF083D0030
:1018200083DE1B43D34D621080B588B002AFF860F1
:10183000084611461A4603467B810B463B811346F8
:10184000FB80FEF783FE7861FB6893F83D30DBB2E6
:10185000202B40F0D9807B690093192301226D4928
:10186000F86800F07BFC0346002B01D00223CCE09B
:10187000FB6893F83C30012B01D10223C5E0FB68E3
:10188000012283F83C20FB681B681B6803F00103FE
:10189000012B07D0FB681B68FA681268126842F0D7
:1018A00001021A60FB681B68FA681268126822F469
:1018B00000621A60FB68212283F83D20FB68402209
:1018C00083F83E20FB6800221A64FB683A6A5A6279
:1018D000FB68BA8C5A85FB685B8D9AB2FB681A85E7
:1018E000FB684D4ADA62F8883A8979897B69019305
:1018F000BB6A00930346F86800F0B6FA0346002B73
:1019000052D0012381E07A69B96AF86800F0FCFCE2
:101910000346002B0DD0FB681B6C042B07D1FB6822
:101920001B68FA681268126842F400721A60012398
:101930006BE0FB681B68FA68526A12781A61FB68F0
:101940005B6A5A1CFB685A62FB681B8D013B9AB2AA
:10195000FB681A85FB685B8D9BB2013B9AB2FB6802
:101960005A85FB681B685B6903F00403042B1BD1D9
:10197000FB681B8D002B17D0FB681B68FA68526A46
:1019800012781A61FB685B6A5A1CFB685A62FB6832
:101990001B8D013B9AB2FB681A85FB685B8D9BB27D
:1019A000013B9AB2FB685A85FB681B8D002BAAD1BC
:1019B0007A69B96AF86800F0E8FC0346002B0DD09C
:1019C000FB681B6C042B07D1FB681B68FA68126864
:1019D000126842F400721A60012316E0FB681B686B
:1019E000FA681268126842F400721A60FB682022DA
:1019F00083F83D20FB68002283F83E20FB6800222C
:101A000083F83C20002300E0022318461837BD4627
:101A100080BD00BF020010000000FFFF80B58CB049
:101A200002AFF860084611461A4603467B810B4612
:101A30003B811346FB80FEF789FD7862FB6893F8D3
:101A40003D30DBB2202B40F008827B6A00931923E3
:101A500001227B49F86800F081FB0346002B01D08E
:101A60000223FBE1FB6893F83C30012B01D10223F8
:101A7000F4E1FB68012283F83C20FB681B681B68CB
:101A800003F00103012B07D0FB681B68FA6812689A
:101A9000126842F001021A60FB681B68FA6812685B
:101AA000126822F400621A60FB68222283F83D204B
:101AB000FB68402283F83E20FB6800221A64FB6822
:101AC0003A6B5A62FB68BA8E5A85FB685B8D9AB294
:101AD000FB681A85FB685B4ADA62F8883A8979897B
:101AE0007B6A0193BB6B00930346F86800F050FAE1
:101AF0000346002B01D00123B0E1FB681B8D002BB6
:101B000013D100233B62FB681B685B693B62FB6887
:101B10001B689B693B623B6AFB681B68FA6812683A
:101B2000126842F400721A6084E1FB681B8D012B7D
:101B30001BD1FB681B68FA681268126822F4806285
:101B40001A600023FB61FB681B685B69FB61FB6833
:101B50001B689B69FB61FB69FB681B68FA6812687C
:101B6000126842F400721A6064E1FB681B8D022B5C
:101B70001BD1FB681B68FA681268126822F4806245
:101B80001A60FB681B68FA681268126842F4006207
:101B90001A600023BB61FB681B685B69BB61FB6863
:101BA0001B689B69BB61BB6944E100237B61FB68E7
:101BB0001B685B697B61FB681B689B697B617B6958
:101BC00038E1FB681B8D032B00F2F180FB681B8D55
:101BD000012B23D17A6AB96BF86800F017FC034631
:101BE000002B01D0012339E1FB685B6AFA681268B7
:101BF0001269D2B21A70FB685B6A5A1CFB685A629F
:101C0000FB681B8D013B9AB2FB681A85FB685B8DF4
:101C10009BB2013B9AB2FB685A850BE1FB681B8DB6
:101C2000022B4ED17B6A0093BB6B00220649F868F9
:101C300000F094FA0346002B08D001230EE100BF08
:101C4000020010000000FFFF04000100FB681B6899
:101C5000FA681268126842F400721A60FB685B6AE4
:101C6000FA6812681269D2B21A70FB685B6A5A1C71
:101C7000FB685A62FB681B8D013B9AB2FB681A85B0
:101C8000FB685B8D9BB2013B9AB2FB685A85FB688F
:101C90005B6AFA6812681269D2B21A70FB685B6AF2
:101CA0005A1CFB685A62FB681B8D013B9AB2FB68A9
:101CB0001A85FB685B8D9BB2013B9AB2FB685A8523
:101CC000B8E07B6A0093BB6B00226649F86800F0BD
:101CD00045FA0346002B01D00123BFE0FB681B68D7
:101CE000FA681268126822F480621A60FB685B6A04
:101CF000FA6812681269D2B21A70FB685B6A5A1CE1
:101D0000FB685A62FB681B8D013B9AB2FB681A851F
:101D1000FB685B8D9BB2013B9AB2FB685A857B6A7C
:101D20000093BB6B00224F49F86800F017FA034696
:101D3000002B01D0012391E0FB681B68FA68126850
:101D4000126842F400721A60FB685B6AFA681268F3
:101D50001269D2B21A70FB685B6A5A1CFB685A623D
:101D6000FB681B8D013B9AB2FB681A85FB685B8D93
:101D70009BB2013B9AB2FB685A85FB685B6AFA68C2
:101D800012681269D2B21A70FB685B6A5A1CFB684F
:101D90005A62FB681B8D013B9AB2FB681A85FB688F
:101DA0005B8D9BB2013B9AB2FB685A8542E07A6A2E
:101DB000B96BF86800F02AFB0346002B01D0012321
:101DC0004CE0FB685B6AFA6812681269D2B21A705A
:101DD000FB685B6A5A1CFB685A62FB681B8D013BFF
:101DE0009AB2FB681A85FB685B8D9BB2013B9AB285
:101DF000FB685A85FB681B685B6903F00403042BCE
:101E000018D1FB685B6AFA6812681269D2B21A705C
:101E1000FB685B6A5A1CFB685A62FB681B8D013BBE
:101E20009AB2FB681A85FB685B8D9BB2013B9AB244
:101E3000FB685A85FB681B8D002B7FF4C2AEFB68E4
:101E4000202283F83D20FB68002283F83E20FB68B7
:101E5000002283F83C20002300E0022318462837A4
:101E6000BD4680BD0400010080B588B002AFF860B7
:101E7000084611461A4603467B810B463B811346B2
:101E8000FB80FB681B68FA681268126842F4807273
:101E90001A607B6A00933B6A00224FF00111F868D8
:101EA00000F05CF90346002B0CD0FB681B681B6834
:101EB00003F48073002B03D0FB684FF400721A64A4
:101EC00003235EE0FB681B687A89D2B202F0FE024F
:101ED0001A617B6A3A6A2D49F86800F096F9034660
:101EE000002B01D001234CE000237B61FB681B68C1
:101EF0005B697B61FB681B689B697B617B697A6AB4
:101F0000396AF86800F000FA0346002B0DD0FB6830
:101F10001B6C042B07D1FB681B68FA6812681268F7
:101F200042F400721A6001232BE0FB88012B05D1DB
:101F3000FB681B683A89D2B21A6121E0FB681B6812
:101F40003A89120A92B2D2B21A617A6A396AF86888
:101F500000F0DAF90346002B0DD0FB681B6C042B54
:101F600007D1FB681B68FA681268126842F40072B5
:101F70001A60012305E0FB681B683A89D2B21A6136
:101F8000002318461837BD4680BD00BF020001007F
:101F900080B588B002AFF860084611461A4603467D
:101FA0007B810B463B811346FB80FB681B68FA680C
:101FB0001268126842F480621A60FB681B68FA6853
:101FC0001268126842F480721A607B6A00933B6A5E
:101FD00000224FF00111F86800F0C0F80346002B12
:101FE0000CD0FB681B681B6803F48073002B03D0C4
:101FF000FB684FF400721A640323A8E0FB681B68B7
:102000007A89D2B202F0FE021A617B6A3A6A5249B8
:10201000F86800F0FAF80346002B01D0012396E09F
:1020200000237B61FB681B685B697B61FB681B6845
:102030009B697B617B697A6A396AF86800F064F9A8
:102040000346002B0DD0FB681B6C042B07D1FB68EB
:102050001B68FA681268126842F400721A60012361
:1020600075E0FB88012B05D1FB681B683A89D2B269
:102070001A6121E0FB681B683A89120A92B2D2B257
:102080001A617A6A396AF86800F03EF90346002B53
:102090000DD0FB681B6C042B07D1FB681B68FA682A
:1020A0001268126842F400721A6001234FE0FB6864
:1020B0001B683A89D2B21A617A6A396AF86800F004
:1020C00023F90346002B0DD0FB681B6C042B07D1B2
:1020D000FB681B68FA681268126842F400721A60A2
:1020E000012334E0FB681B68FA681268126842F446
:1020F00080721A607B6A00933B6A00224FF00111E4
:10210000F86800F02BF80346002B0CD0FB681B6826
:102110001B6803F48073002B03D0FB684FF400723C
:102120001A64032313E0FB681B687A89D2B242F079
:102130000102D2B21A617B6A3A6A0749F86800F074
:1021400064F80346002B01D0012300E00023184669
:102150001837BD4680BD00BF0200010080B584B0C5
:1021600000AFF860B9603B601346FB7125E03B6847
:10217000B3F1FF3F21D0FEF7E9F90246BB69D21A5D
:102180003B689A4202D83B68002B16D1FB680022BC
:102190001A63FB68202283F83D20FB68002283F845
:1021A0003E20FB681B6C43F02002FB681A64FB684E
:1021B000002283F83C20012323E0BB681B0CDBB228
:1021C000012B0DD1FB681B685B69DA43BB681340C8
:1021D0009BB2002B0CBF01230023DBB21A460CE09C
:1021E000FB681B689B69DA43BB6813409BB2002BFA
:1021F0000CBF01230023DBB21A46FB799A42B6D00A
:10220000002318461037BD4680BD80B584B000AFAE
:10221000F860B9607A603B6051E0FB681B685B69FD
:1022200003F48063B3F5806F23D1FB681B68FA6801
:102230001268126842F400721A60FB681B686FF43F
:1022400080625A61FB6800221A63FB68202283F8CF
:102250003D20FB68002283F83E20FB681B6C43F0A6
:102260000402FB681A64FB68002283F83C20012307
:1022700046E07B68B3F1FF3F21D0FEF767F90246E5
:102280003B68D21A7B689A4202D87B68002B16D131
:10229000FB6800221A63FB68202283F83D20FB685C
:1022A000002283F83E20FB681B6C43F02002FB6891
:1022B0001A64FB68002283F83C20012320E0BB68FD
:1022C0001B0CDBB2012B0CD1FB681B685B69DA438A
:1022D000BB6813409BB2002B14BF01230023DBB269
:1022E0000BE0FB681B689B69DA43BB6813409BB239
:1022F000002B14BF01230023DBB2002B8DD1002360
:1023000018461037BD4680BD80B584B000AFF86078
:10231000B9607A602DE0F86800F0CEF80346002B33
:1023200001D001232DE0BB68B3F1FF3F21D0FEF7C0
:102330000DF902467B68D21ABB689A4202D8BB6884
:10234000002B16D1FB6800221A63FB68202283F859
:102350003D20FB68002283F83E20FB681B6C43F0A5
:102360002002FB681A64FB68002283F83C200123EA
:1023700007E0FB681B685B6903F08003802BCAD110
:10238000002318461037BD4680BD80B584B000AF2D
:10239000F860B9607A602DE0F86800F08DF80346C7
:1023A000002B01D001232DE0BB68B3F1FF3F21D00A
:1023B000FEF7CCF802467B68D21ABB689A4202D874
:1023C000BB68002B16D1FB6800221A63FB68202231
:1023D00083F83D20FB68002283F83E20FB681B6CDD
:1023E00043F02002FB681A64FB68002283F83C205B
:1023F000012307E0FB681B685B6903F00403042BFF
:10240000CAD1002318461037BD4680BD80B584B0C0
:1024100000AFF860B9607A6042E0FB681B685B69F6
:1024200003F01003102B19D1FB681B686FF010022A
:102430005A61FB6800221A63FB68202283F83D2062
:10244000FB68002283F83E20FB681A6CFB681A6464
:10245000FB68002283F83C20012329E0FEF776F890
:1024600002467B68D21ABB689A4202D8BB68002B2E
:1024700016D1FB6800221A63FB68202283F83D20F6
:10248000FB68002283F83E20FB681B6C43F02002AF
:10249000FB681A64FB68002283F83C20012307E0F4
:1024A000FB681B685B6903F04003402BB5D1002338
:1024B00018461037BD4680BD80B483B000AF786049
:1024C0007B681B685B6903F48063B3F5806F1BD185
:1024D0007B681B686FF480625A617B6800221A6314
:1024E0007B68202283F83D207B68002283F83E2011
:1024F0007B681B6C43F004027B681A647B680022D3
:1025000083F83C20012300E0002318460C37BD4629
:102510005DF8047B7047000080B588B000AF78603C
:102520007B68002B01D1012327E17B6893F84130C0
:10253000DBB2002B09D17B68002283F840207B6846
:10254000904A5A63786804F039FF7B68022283F866
:1025500041207B681A687B681B68DB6923F47B6316
:1025600023F00F03D3617B681B6802221A627B6829
:102570005B69022B60D07B68DB68002B02D11023E3
:102580007B6101E020237B617B689B68202B02D864
:102590007B695B007B61012001F0A0FBF8607B6838
:1025A0001B69B3F5007F25D17B68DB68002B10D059
:1025B0007B699B00FA68B2FBF3F213469B0013445D
:1025C0005B001A467B685B69B2FBF3F305333B6142
:1025D0001FE07B69DB00FA68B2FBF3F213469B0055
:1025E00013445B001A467B685B69B2FBF3F3053367
:1025F0003B610EE0FA687B69B2FBF3F213469B0085
:1026000013445B001A467B685B69B2FBF3F3053346
:102610003B613B695C4AA2FB0323DB083B613B69EE
:1026200003F00103BB613A69BB69D31A5B08FB6124
:10263000BB691B02BB6103E00223FB610023BB619A
:10264000FB69012B02D9FB69FF2B07D97B685B6C07
:1026500043F010027B685A6401238EE07B681B689C
:102660007A681169BA691143FA690A431A627B6888
:102670001A687B681B68DB6923F47B6323F00F0314
:10268000796848687968896808437968C96808433F
:102690007968896901430B4343F40063D3617B6824
:1026A0001B6A012B61D17B68384A5A637B681B68BF
:1026B000374A934201D1374A01E04FF040227B680C
:1026C0001B6833498B4201D1324B01E04FF040236C
:1026D000DB6923F47B6323F00F03D3617B681B6802
:1026E0002B4A934201D12B4B01E04FF040230222B1
:1026F0001A627B681B68264A934201D1254B01E090
:102700004FF04023DB697B817B685B68B3F5007F1A
:1027100003D07B685B68002B03D14FF480733B616F
:1027200001E000233B613B699AB27B689B6899B2E8
:102730007B68DB6898B27B689B699BB203439BB262
:102740000B439BB213439AB27B8913439BB243F46E
:1027500000637B817B681B680D4A934201D10D4B5E
:1027600001E04FF040237A89DA617B6800225A64E5
:102770007B68012283F84120002318462037BD469C
:1027800080BD00BFFD2B0008CDCCCCCC112D0008A6
:10279000003800400034004080B582B000AF78605F
:1027A0007B68002B01D101231AE07B68022283F8A9
:1027B00041207B681B687A681268D26922F48062C3
:1027C000DA61786804F0B0FE7B6800225A647B68A6
:1027D000002283F841207B68002283F840200023F8
:1027E00018460837BD4680BD80B586B000AFF8609A
:1027F000B9601346FB80BB68002B02D0FB88002B1E
:1028000001D101238EE0FB6893F84030DBB2012B4D
:1028100001D1022386E0FB68012283F84020FB6897
:1028200093F84130DBB2012B05D0FB68002283F81E
:102830004020022376E0FB68032283F84120FB68F6
:1028400000225A64FB68BA685A62FB681B68DB693D
:1028500003F007037B617B69032B02D07B69052BA7
:102860000AD1FB885B009AB2FB681A85FB885B0083
:102870009AB2FB685A8505E0FB68FA881A85FB68FE
:10288000FA885A85FB689B6B284A1A64FB689B6B25
:10289000274ADA63FB689B6B264ADA64FB68986B0D
:1028A000FB685B6A1946FB681B680C331A46FB68B9
:1028B0001B8D9BB2FEF764F80346002B0FD0FB681C
:1028C0005B6C43F00802FB685A64FB68012283F8E2
:1028D0004120FB68002283F84020012322E0FB68AE
:1028E0001B68DB6903F48063002B07D1FB681B685E
:1028F000FA681268D26942F48062DA61FB681B6888
:102900005B6803F00203002B07D1FB681B68FA68C1
:102910001268526842F002025A60FB68002283F893
:102920004020002318461837BD4680BDDB2A00082A
:10293000992A0008F72A000880B584B000AF7860B3
:102940000023FB737B681B687A681268526822F068
:1029500002025A607B681B687A681268526822F02B
:1029600001025A607B689B6B002B0FD07B689B6BCE
:102970001846FEF75DF80346002B07D07B685B6CBA
:1029800043F008027B685A640123FB737B68DB6BAE
:10299000002B0FD07B68DB6B1846FEF749F8034627
:1029A000002B07D07B685B6C43F008027B685A649D
:1029B0000123FB737B6893F84130DBB2052B41D1D7
:1029C0007B681B68284A934201D1284B01E04FF0F5
:1029D00040237A68126824498A4201D1234A01E0DF
:1029E0004FF04022526822F002025A607B681B6856
:1029F0001D4A934201D11D4B01E04FF040237A68FC
:102A0000126819498A4201D1184A01E04FF0402268
:102A1000526822F001025A607B681B68124A934296
:102A200001D1124B01E04FF040237A6812680E4941
:102A30008A4201D10D4A01E04FF04022D26922F4CE
:102A40008062DA617B681B687A681268D26922F456
:102A50008062DA617B68012283F84120FB7B1846A3
:102A60001037BD4680BD00BF003800400034004034
:102A700080B483B000AF786000BF0C37BD465DF80E
:102A8000047B704780B483B000AF786000BF0C3720
:102A9000BD465DF8047B704780B584B000AF7860B8
:102AA0007B689B6BFB607B68DB69002B0ED1FB684E
:102AB0001B68FA681268526822F002025A60FB68CA
:102AC00000225A85FB68012283F84120F86804F04F
:102AD00085F800BF1037BD4680BD80B584B000AF1B
:102AE00078607B689B6BFB60F86804F089F800BF36
:102AF0001037BD4680BD80B584B000AF78607B687C
:102B00009B6BFB60FB681B68FA681268526822F0D6
:102B100003025A60FB6800225A85FB6800225A862D
:102B2000FB68012283F84120FB685B6C43F00802DC
:102B3000FB685A64F868FFF7A5FF00BF1037BD4671
:102B400080BD80B582B000AF78607B681B687A6812
:102B5000526A1288DA607B685B6A9A1C7B685A62E8
:102B60007B685B8D9BB2013B9AB27B685A857B6820
:102B70005B8D9BB2002B0ED17B681B687A68126854
:102B8000526822F0A0025A607B68012283F841203B
:102B9000786804F023F800BF0837BD4680BD80B5D3
:102BA00082B000AF78607B68DB6A7A681268D268AE
:102BB00092B21A807B68DB6A9A1C7B68DA627B6857
:102BC0005B8E9BB2013B9AB27B685A867B685B8EB8
:102BD0009BB2002B0ED17B681B687A681268526822
:102BE00022F060025A607B68012283F841207868F5
:102BF000FFF73EFF00BF0837BD4680BD80B586B0F9
:102C000000AF78607B681B689B687B617B6893F88A
:102C10004130DBB2042B3AD17B6903F00103012B75
:102C200009D17B681B685B6803F04003402B02D12D
:102C30007868FFF7B4FF7B6903F04003402B26D18F
:102C40007B681B685B6803F02003202B1FD17B6827
:102C50001B687A681268526822F060025A6000238A
:102C60003B617B681B68DB683B617B681B689B681A
:102C70003B613B697B68012283F841207B685B6C88
:102C800043F002027B685A647868FFF7FBFE7B68BA
:102C900093F84130DBB2032B36D17B6903F002039A
:102CA000022B09D17B681B685B6803F08003802BD3
:102CB00002D17868FFF745FF7B6903F00803082B12
:102CC00022D17B681B685B6803F02003202B1BD19B
:102CD0007B681B687A681268526822F0A0025A600A
:102CE0000023FB607B681B689B68FB60FB687B685C
:102CF000012283F841207B685B6C43F004027B680F
:102D00005A647868FFF7BEFE00BF1837BD4680BD25
:102D100080B588B000AF78607B681B689B68FB61FA
:102D20007B681B68A24A934201D1A24B01E04FF09D
:102D300040239B68BB617B681B685B687B617B6829
:102D40001B689B4A934201D19A4B01E04FF040230C
:102D50005B683B617B685B68B3F5007F04D07B6890
:102D60005B68002B40F09980FB6903F00203022BA3
:102D700007D17B6903F08003002B02D0786800F054
:102D800025F9BB6903F00103012B07D13B6903F06F
:102D90004003002B02D0786800F0C6F9BB6903F04D
:102DA0004003402B3AD13B6903F02003002B35D080
:102DB0007B681B687E4A934201D17E4B01E04FF055
:102DC00040237A6812687A498A4201D1794A01E03F
:102DD0004FF04022526822F060025A607B681B6804
:102DE0007A681268526822F0A0025A600023FB60E1
:102DF0007B681B68DB68FB607B681B689B68FB600B
:102E0000FB687B68012283F841207B685B6C43F0A0
:102E100002027B685A647868FFF734FEFB6903F0AE
:102E20000803082B40F0BE807B6903F02003002BD1
:102E300000F0B8807B681B687A681268526822F0DC
:102E4000A0025A607B681B68594A934201D1594BD2
:102E500001E04FF040237A68126855498A4201D157
:102E6000544A01E04FF04022526822F060025A605A
:102E70000023BB607B681B689B68BB60BB687B688A
:102E8000012283F841207B685B6C43F004027B687D
:102E90005A647868FFF7F6FD84E0BB6903F002032B
:102EA000022B07D13B6903F08003002B02D0786826
:102EB00000F0BEF8FB6903F00103012B07D17B6929
:102EC00003F04003002B02D0786800F0FBF8FB69A8
:102ED00003F04003402B2FD17B6903F02003002B2C
:102EE0002AD07B681B687A681268526822F06002F8
:102EF0005A607B681B682E4A934201D12D4B01E03A
:102F00004FF040237A68126829498A4201D1294A40
:102F100001E04FF04022526822F0A0025A607B6824
:102F2000012283F841207B685B6C43F002027B68DE
:102F30005A647868FFF7A6FDBB6903F00803082B05
:102F400031D13B6903F02003002B2CD07B681B6838
:102F5000174A934201D1174B01E04FF040237A68A2
:102F6000126813498A4201D1124A01E04FF040220F
:102F7000526822F0A0025A607B681B687A68126867
:102F8000526822F060025A607B68012283F8412077
:102F90007B685B6C43F004027B685A647868FFF7D7
:102FA00071FD00E000BF00BF2037BD4680BD00BFFF
:102FB000003800400034004080B483B000AF786037
:102FC00000BF0C37BD465DF8047B704780B582B00A
:102FD00000AF78607B681A687B685B6A981C7968C8
:102FE00048621B88D3607B685B8D9BB2013B9AB2C1
:102FF0007B685A857B685B8D9BB2002B13D17B6805
:103000001B687A681268526822F0A0025A607B68D6
:103010005B8E9BB2002B06D17B68012283F8412096
:103020007868FFF7C9FF00BF0837BD4680BD0000C4
:1030300080B582B000AF78607B681B681F4A9342FE
:1030400001D11F4A01E04FF040227B685B6A981C67
:10305000796848621B88D3607B685B8D9BB2013BBB
:103060009AB27B685A857B685B8D9BB2002B21D11D
:103070007B681B68114A934201D1114B01E04FF06C
:1030800040237A6812680D498A4201D10C4A01E056
:103090004FF04022526822F0A0025A607B685B8E9B
:1030A0009BB2002B06D17B68012283F8412078680F
:1030B000FFF782FF00BF0837BD4680BD00380040E3
:1030C0000034004080B582B000AF78607B68DB6A76
:1030D000991C7A68D1627A681268D26892B21A80B2
:1030E0007B685B8E9BB2013B9AB27B685A867B6899
:1030F0005B8E9BB2002B13D17B681B687A681268C9
:10310000526822F060025A607B685B8D9BB2002B94
:1031100006D17B68012283F841207868FFF74CFFD5
:1031200000BF0837BD4680BD80B582B000AF786073
:103130007B68DB6A991C7A68D1627A6812681E49DA
:103140008A4201D11D4A01E04FF04022D26892B27A
:103150001A807B685B8E9BB2013B9AB27B685A8671
:103160007B685B8E9BB2002B21D17B681B68124A67
:10317000934201D1114B01E04FF040237A6812686D
:103180000D498A4201D10D4A01E04FF040225268B8
:1031900022F060025A607B685B8D9BB2002B06D1E7
:1031A0007B68012283F841207868FFF705FF00BFA4
:1031B0000837BD4680BD00BF0038004000340040E5
:1031C00080B586B000AF78607B68002B01D1012309
:1031D0005BE27B681B6803F00103002B75D0A34BF7
:1031E0009B6803F00C03042B0CD0A04B9B6803F0EE
:1031F0000C03082B12D19D4B5B6803F48003B3F5DD
:10320000800F0BD1994B1B6803F40033002B5BD06C
:103210007B685B68002B57D1012336E27B685B68D3
:10322000B3F5803F06D1914A904B1B6843F480333D
:1032300013601DE07B685B68B3F5A02F0CD18B4A4F
:103240008A4B1B6843F480231360884A874B1B68B2
:1032500043F4803313600BE0844A844B1B6823F4EF
:1032600080331360814A814B1B6823F480231360F1
:103270007B685B68002B13D0FDF768F9386108E0C4
:10328000FDF764F902463B69D31A642B01D9032385
:10329000FBE1764B1B6803F40033002BF0D014E005
:1032A000FDF754F9386108E0FDF750F902463B6933
:1032B000D31A642B01D90323E7E16C4B1B6803F499
:1032C0000033002BF0D100E000BF7B681B6803F0E7
:1032D0000203002B63D0654B9B6803F00C03002BAB
:1032E0000BD0624B9B6803F00C03082B1CD15F4B87
:1032F0005B6803F48003002B16D15C4B1B6803F062
:103300000203002B05D07B68DB68012B01D0012371
:10331000BBE15649554B1B6823F0F8027B681B69DB
:10332000DB0013430B603AE07B68DB68002B20D0A6
:103330004F4B01221A60FDF709F9386108E0FDF7EB
:1033400005F902463B69D31A022B01D903239CE1FC
:10335000464B1B6803F00203002BF0D04349434B5C
:103360001B6823F0F8027B681B69DB0013430B60CA
:1033700015E03F4B00221A60FDF7E8F8386108E0DD
:10338000FDF7E4F802463B69D31A022B01D9032367
:103390007BE1364B1B6803F00203002BF0D17B6806
:1033A0001B6803F00803002B30D07B685B69002B9F
:1033B00016D0304B01221A60FDF7C8F8386108E0DA
:1033C000FDF7C4F802463B69D31A022B01D9032347
:1033D0005BE1264B5B6F03F00203002BF0D015E09E
:1033E000244B00221A60FDF7B1F8386108E0FDF7C0
:1033F000ADF802463B69D31A022B01D9032344E1FD
:103400001A4B5B6F03F00203002BF0D17B681B6843
:1034100003F00403002B00F0A0800023FB75134B86
:103420001B6C03F08053002B0FD10023BB600F4AAD
:103430000E4B1B6C43F0805313640C4B1B6C03F05E
:103440008053BB60BB680123FB750B4B1B6803F407
:103450008073002B21D1084A074B1B6843F480730B
:103460001360FDF773F8386111E000BF00380240C7
:1034700000004742800E474200700040FDF766F8AA
:1034800002463B69D31A022B01D90323FDE0814B8D
:103490001B6803F48073002BF0D07B689B68012BC2
:1034A00006D17D4A7C4B1B6F43F0010313671CE080
:1034B0007B689B68052B0CD1774A774B1B6F43F0D9
:1034C00004031367744A744B1B6F43F001031367C3
:1034D0000BE0714A704B1B6F23F0010313676E4AB8
:1034E0006D4B1B6F23F0040313677B689B68002BF5
:1034F00015D0FDF72BF838610AE0FDF727F80246F2
:103500003B69D31A41F28832934201D90323BCE0CC
:10351000614B1B6F03F00203002BEED014E0FDF7AC
:1035200015F838610AE0FDF711F802463B69D31A35
:1035300041F28832934201D90323A6E0564B1B6F18
:1035400003F00203002BEED1FB7D012B05D1524A83
:10355000514B1B6C23F0805313647B689B69002BD9
:1035600000F092804C4B9B6803F00C03082B5CD05E
:103570007B689B69022B41D1484B00221A60FCF703
:10358000E5FF386108E0FCF7E1FF02463B69D31A2A
:10359000022B01D9032378E03F4B1B6803F0007333
:1035A000002BF0D13C497B68DA697B681B6A1A43BF
:1035B0007B685B6A9B011A437B689B6A5B08013BE3
:1035C0001B041A437B68DB6A1B0613434B60334BB7
:1035D00001221A60FCF7BAFF386108E0FCF7B6FF79
:1035E00002463B69D31A022B01D903234DE02A4B33
:1035F0001B6803F00073002BF0D045E0274B00223E
:103600001A60FCF7A3FF386108E0FCF79FFF024651
:103610003B69D31A022B01D9032336E01E4B1B68EA
:1036200003F00073002BF0D12EE07B689B69012B27
:1036300001D1012329E0184B9B68FB60FB6803F470
:1036400080027B68DB699A421CD1FB6803F03F0271
:103650007B681B6A9A4215D1FA6847F6C07313401B
:103660007A68526A93420DD1FB6803F440327B685A
:103670009B6A9A4206D1FB6803F070627B68DB6A42
:103680009A4201D0012300E0002318461837BD46B6
:1036900080BD00BF0070004000380240600047421B
:1036A00080B584B000AF786039607B68002B01D1B1
:1036B0000123CCE0684B1B6803F00F023B689A4281
:1036C0000CD2654B3A68D2B21A70634B1B6803F098
:1036D0000F023B689A4201D00123B8E07B681B6867
:1036E00003F00203002B20D07B681B6803F0040367
:1036F000002B05D0594A594B9B6843F4E053936023
:103700007B681B6803F00803002B05D0534A534B1A
:103710009B6843F4604393605049504B9B6823F08F
:10372000F0027B689B6813438B607B681B6803F027
:103730000103002B44D07B685B68012B07D1474B0A
:103740001B6803F40033002B19D101237FE07B6851
:103750005B68022B03D07B685B68032B07D13F4B70
:103760001B6803F00073002B09D101236FE03B4B72
:103770001B6803F00203002B01D1012367E03749E6
:10378000364B9B6823F003027B685B6813438B60B6
:10379000FCF7DCFEF8600AE0FCF7D8FE0246FB68A6
:1037A000D31A41F28832934201D903234FE02B4BC5
:1037B0009B6803F00C027B685B689B009A42EBD12C
:1037C000254B1B6803F00F023B689A420CD9224B31
:1037D0003A68D2B21A70204B1B6803F00F023B68A4
:1037E0009A4201D0012332E07B681B6803F0040396
:1037F000002B08D01949194B9B6823F4E0527B68D1
:10380000DB6813438B607B681B6803F00803002BA5
:1038100009D01249114B9B6823F460427B681B69F5
:10382000DB0013438B6000F021F801460B4B9B68D3
:103830001B0903F00F030A4AD35C21FA03F3094A78
:103840001360094B1B68184603F008FF0023184655
:103850001037BD4680BD00BF003C0240003802402A
:103860003879000810000020000000202DE9F04FFA
:103870008FB000AF0023FB6200237B630023BB6299
:1038800000233B63624B9B6803F00C03042B07D0BF
:10389000082B08D0002B40F0B2805E4B3B63B1E0B8
:1038A0005D4B3B63AEE05A4B5B6803F03F03FB624A
:1038B000574B5B6803F48003002B4ED0544B5B687E
:1038C0009B094FF0000440F2FF114FF0000201EAA3
:1038D000030102EA04020B46144660017862786A2A
:1038E00040EAD36078625B013B62D7E908345B1A37
:1038F00064EB02044FEA841949EA93694FEA83189A
:10390000B8EB030869EB04094FEAC903FB61FB69E3
:1039100043EA5873FB614FEAC803BB61D7E90689E4
:1039200018EB010849EB02094FEA49237B617B69E7
:1039300043EAD8537B614FEA48233B61D7E90489C6
:1039400040464946FB6A4FF000041A462346FCF7FE
:103950003FFC03460C467B6343E02D4B5B689B09B1
:103960004FF0000440F2FF114FF0000201EA0301A2
:1039700002EA04020B4614466001F860F86840EA67
:10398000D360F8605B01BB60D7E902345B1A64EB7B
:103990000204A60146EA93669D01ED1A66EB040651
:1039A000F3007B607B6843EA55737B60EB003B6010
:1039B00097E860006D1846EB02064FEA862B4BEA4B
:1039C000955B4FEA852A55465E4628463146FB6A96
:1039D0004FF000041A462346FCF7FAFB03460C4658
:1039E0007B630B4B5B681B0C03F0030301335B0031
:1039F000BB627A6BBB6AB2FBF3F33B6302E0054B3D
:103A00003B6300BF3B6B18463C37BD46BDE8F08FBB
:103A1000003802400024F40000127A0080B400AFA5
:103A2000034B1B681846BD465DF8047B704700BF1A
:103A30001000002080B500AFFFF7F0FF0146054BF6
:103A40009B689B0A03F00703034AD35C21FA03F344
:103A5000184680BD003802404879000880B483B021
:103A600000AF786039607B680F221A60124B9B6848
:103A700003F003027B685A600F4B9B6803F0F0026F
:103A80007B689A600C4B9B6803F4E0527B68DA60B9
:103A9000094B9B68DB0803F4E0527B681A61074B13
:103AA0001B6803F00F023B681A6000BF0C37BD466D
:103AB0005DF8047B704700BF00380240003C0240C4
:103AC00080B586B000AF786000237B6100233B6146
:103AD0007B681B6803F00103002B05D17B681B6822
:103AE00003F00403002B35D0624B00221A60FCF770
:103AF0002DFD786108E0FCF729FD02467B69D31AA9
:103B0000022B01D90323B0E05B4B1B6803F0006379
:103B1000002BF0D158497B685B689A017B689B68F1
:103B20001B071343C1F88430524B01221A60FCF783
:103B30000DFD786108E0FCF709FD02467B69D31AA8
:103B4000022B01D9032390E04B4B1B6803F0006369
:103B5000002BF0D07B681B6803F00203002B00F001
:103B600083800023FB60444A434B1B6C43F080532B
:103B70001364414B1B6C03F08053FB60FB683F4AAE
:103B80003E4B1B6843F480731360FCF7DFFC7861E5
:103B900008E0FCF7DBFC02467B69D31A022B01D953
:103BA000032362E0354B1B6803F48073002BF0D0D5
:103BB000314B1B6F03F440733B613B69002B2FD0EB
:103BC0007B68DB6803F440723B699A4228D02A4B39
:103BD0001B6F23F440733B61294B01221A60284B71
:103BE00000221A60244A3B691367234B1B6F03F0C2
:103BF0000103012B14D1FCF7A9FC78610AE0FCF762
:103C0000A5FC02467B69D31A41F28832934201D95E
:103C100003232AE0184B1B6F03F00203002BEED0A6
:103C20007B68DB6803F44073B3F5407F0DD1124924
:103C3000114B9B6823F4F8127B68DB6823F0704318
:103C400023F4407313438B6005E00B4A0A4B9B68D7
:103C500023F4F81393600849074B1A6F7B68DB68FD
:103C6000C3F30B0313430B67002318461837BD46F5
:103C700080BD00BF6800474200380240007000402D
:103C8000400E474280B485B000AF78607B68032265
:103C90001A60114BD3F884309B09C3F308027B6888
:103CA0005A600D4BD3F884301B0F03F007027B687A
:103CB0009A60094B9B6803F4F813FB60064B1B6F7B
:103CC00003F44072FB681A437B68DA6000BF143764
:103CD000BD465DF8047B70470038024080B487B071
:103CE00000AF786000237B6100233B610023FB6011
:103CF0000023BB607B68012B3DD1224B9B6803F402
:103D00000003FB60FB68002B04D0012B2FD11E4B5E
:103D10007B612FE01B4B5B6803F48003B3F5800FDE
:103D200008D1184B5B6803F03F03184AB2FBF3F36A
:103D30003B6107E0134B5B6803F03F03144AB2FB9F
:103D4000F3F33B610F4BD3F884309B09C3F30803B3
:103D50003A6902FB03F3BB600A4BD3F884301B0FB4
:103D600003F00703BA68B2FBF3F37B6102E00023C0
:103D70007B6100BF00BF7B6918461C37BD465DF8FC
:103D8000047B7047003802400080BB0000127A00BC
:103D90000024F40080B582B000AF78607B68002B0F
:103DA00001D1012355E07B6800229A627B6893F879
:103DB0005130DBB2002B06D17B68002283F8502003
:103DC000786803F0DBFB7B68022283F851207B6874
:103DD0001B687A681268126822F040021A607B68D9
:103DE0001B687A6851687A68926811437A68D26869
:103DF00011437A68126911437A68526911437A68EB
:103E0000926902F4007211437A68D26911437A68A8
:103E1000126A11437A68926A0A431A607B681B68C7
:103E20007A689269120C02F004017A68526A0A43B5
:103E30005A607B681B687A681268D26922F4006253
:103E4000DA617B6800225A657B68012283F8512081
:103E5000002318460837BD4680BD000080B586B0F7
:103E600000AFF860B9601346FB800023FB75FB6868
:103E70009B68002B10D1FB685B68B3F5827F0BD188
:103E8000FB68042283F85120FB88BA68B968F86897
:103E900000F078F803466CE0FB6893F85030012B93
:103EA00001D1022365E0FB68012283F85020FB6802
:103EB00093F85130DBB2012B02D00223FB7553E0A3
:103EC000BB68002B02D0FB88002B02D10123FB75BD
:103ED0004AE0FB68042283F85120FB6800225A65FF
:103EE000FB68BA689A63FB68FA889A87FB68FA8865
:103EF000DA87FB6800221A63FB6800229A86FB6857
:103F00000022DA86FB6800225A64FB68DB68002B1B
:103F100003D0FB68194A1A6402E0FB68184A1A6465
:103F2000FB689B68B3F5004F07D1FB681B68FA6814
:103F30001268126822F480421A60FB681B68FA68F3
:103F40001268526842F060025A60FB681B681B6886
:103F500003F04003402B07D0FB681B68FA68126827
:103F6000126842F040021A60FB68002283F8502079
:103F7000FB7D18461837BD4680BD00BFAD44000824
:103F80006544000880B487B000AFF860B9607A601B
:103F90007B800023FB75FB6893F85030012B01D127
:103FA000022373E0FB68012283F85020FB6893F83A
:103FB0005130BB75FB685B683B61BB7D012B0DD04D
:103FC0003B69B3F5827F06D1FB689B68002B02D169
:103FD000BB7D042B02D00223FB7552E0BB68002B93
:103FE00005D07B68002B02D07B88002B02D10123F7
:103FF000FB7546E0FB6893F85130DBB2042B03D02D
:10400000FB68052283F85120FB6800225A65FB6893
:10401000BA681A63FB687A889A86FB687A88DA86B7
:10402000FB687A689A63FB687A889A87FB687A8863
:10403000DA87FB68DB68002B06D0FB68164A1A6437
:10404000FB68164A5A6405E0FB68154A1A64FB6867
:10405000144A5A64FB681B68FA681268526842F096
:10406000E0025A60FB681B681B6803F04003402BAA
:1040700007D0FB681B68FA681268126842F04002B9
:104080001A60FB68002283F85020FB7D18461C371D
:10409000BD465DF8047B7047A7430008074400084D
:1040A000E54200084743000880B588B000AF78605B
:1040B0007B681B685B68FB617B681B689B68BB61F6
:1040C000BB6903F04003002B0ED1BB6903F0010371
:1040D000002B09D0FB6903F04003002B04D07B6860
:1040E0001B6C78689847CFE0BB6903F00203002B94
:1040F00009D0FB6903F08003002B04D07B685B6C64
:1041000078689847C0E0BB6903F02003002B0AD110
:10411000BB6903F04003002B05D1BB6903F4807336
:10412000002B00F0B180FB6903F02003002B00F0AE
:10413000AB80BB6903F04003002B23D07B6893F86E
:104140005130DBB2032B11D07B685B6D43F004026E
:104150007B685A6500237B617B681B68DB687B6139
:104160007B681B689B687B617B690BE000233B617C
:104170007B681B68DB683B617B681B689B683B61F5
:104180003B6981E0BB6903F02003002B14D07B68FE
:104190005B6D43F001027B685A650023FB607B681E
:1041A0001B689B68FB607B681B687A6812681268F2
:1041B00022F040021A60FB68BB6903F48073002B95
:1041C0000CD07B685B6D43F008027B685A65002366
:1041D000BB607B681B689B68BB60BB687B685B6D72
:1041E000002B50D07B681B687A681268526822F0F6
:1041F000E0025A607B68012283F85120FB6903F0DA
:104200000203002B04D1FB6903F00103002B34D01F
:104210007B681B687A681268526822F003025A6051
:104220007B68DB6C002B11D07B68DB6C184A1A654D
:104230007B68DB6C1846FCF76BFC0346002B05D053
:104240007B685B6D43F040027B685A657B689B6CC2
:10425000002B16D07B689B6C0D4A1A657B689B6CA3
:104260001846FCF755FC0346002B0AD07B685B6DB3
:1042700043F040027B685A6503E0786800F014F868
:1042800000E000BF00BF00BF2037BD4680BD00BFBB
:10429000BD42000880B483B000AF786000BF0C3727
:1042A000BD465DF8047B704780B483B000AF786092
:1042B00000BF0C37BD465DF8047B704780B584B005
:1042C00000AF78607B689B6BFB60FB680022DA873D
:1042D000FB680022DA86F868FFF7E6FF00BF1037B8
:1042E000BD4680BD80B582B000AF78607B689B6BB7
:1042F0007A6812680C321278D2B21A707B689B6BA3
:104300005A1C7B689A637B68DB8F9BB2013B9AB235
:104310007B68DA877B68DB8F9BB2002B0FD17B68D1
:104320001B687A681268526822F060025A607B68E3
:10433000DB8E9BB2002B02D1786800F0EBF900BF56
:104340000837BD4680BD80B582B000AF78607B681D
:104350001B680C337A68126B12781A707B681B6BBF
:104360005A1C7B681A637B68DB8E9BB2013B9AB256
:104370007B68DA867B68DB8E9BB2002B0FD17B6873
:104380001B687A681268526822F080025A607B6863
:10439000DB8F9BB2002B02D1786800F0BBF900BF25
:1043A0000837BD4680BD80B582B000AF78607B68BD
:1043B0009B6B7A681268D26892B21A807B689B6B9A
:1043C0009A1C7B689A637B68DB8F9BB2013B9AB235
:1043D0007B68DA877B68DB8F9BB2002B0FD17B6811
:1043E0001B687A681268526822F040025A607B6843
:1043F000DB8E9BB2002B02D1786800F08BF900BFF6
:104400000837BD4680BD80B582B000AF78607B685C
:104410001B687A68126B1288DA607B681B6B9A1CC7
:104420007B681A637B68DB8E9BB2013B9AB27B6828
:10443000DA867B68DB8E9BB2002B0FD17B681B6812
:104440007A681268526822F080025A607B68DB8FBB
:104450009BB2002B02D1786800F05CF900BF0837EE
:10446000BD4680BD80B582B000AF78607B689B6B35
:104470007A6812680C321278D2B21A707B689B6B21
:104480005A1C7B689A637B68DB8F9BB2013B9AB2B4
:104490007B68DA877B68DB8F9BB2002B02D1786860
:1044A00000F0ACF900BF0837BD4680BD80B582B0D2
:1044B00000AF78607B689B6B7A681268D26892B2B2
:1044C0001A807B689B6B9A1C7B689A637B68DB8F86
:1044D0009BB2013B9AB27B68DA877B68DB8F9BB229
:1044E000002B02D1786800F089F900BF0837BD467B
:1044F00080BD80B584B000AFF860B9603B60134602
:10450000FB714CE03B68B3F1FF3F48D0FCF71EF86D
:104510000246BB69D21A3B689A4202D23B68002B22
:104520003DD1FB681B68FA681268526822F0E0020D
:104530005A60FB685B68B3F5827F11D1FB689B68AA
:10454000B3F5004F04D0FB689B68B3F5806F07D1CB
:10455000FB681B68FA681268126822F040021A6051
:10456000FB689B6AB3F5005F0FD1FB681B68FA68B4
:104570001268126822F400521A60FB681B68FA681D
:104580001268126842F400521A60FB68012283F834
:104590005120FB68002283F8502003230FE0FB68C2
:1045A0001B689A68BB681A40BB689A420CBF01231B
:1045B0000023DBB21A46FB799A42A3D100231846A6
:1045C0001037BD4680BD80B586B002AFF860B960D7
:1045D0007A60FB685B68B3F5827F11D1FB689B68EA
:1045E000B3F5004F04D0FB689B68B3F5806F07D12B
:1045F000FB681B68FA681268126822F040021A60B1
:10460000FB685B68B3F5827F2AD1FB689B68B3F5D2
:10461000806F12D07B680093BB6800228021F8680D
:10462000FFF767FF0346002B2DD0FB685B6D43F05F
:104630002002FB685A65032326E07B680093BB6871
:1046400000220121F868FFF754FF0346002B1AD01F
:10465000FB685B6D43F02002FB685A65032313E09F
:104660007B680093BB6800220121F868FFF741FFD7
:104670000346002B07D0FB685B6D43F02002FB680C
:104680005A65032300E0002318461037BD4680BD5D
:1046900080B588B002AFF860B9607A601B4B1B68C8
:1046A0001B4AA2FB03235B0D4FF47A7202FB03F358
:1046B0007B61FB685B68B3F5827F12D17B680093F6
:1046C000BB6800228021F868FFF713FF0346002B28
:1046D00016D0FB685B6D43F02002FB685A6503232C
:1046E0000FE07B69002B0AD07B69013B7B61FB6893
:1046F0001B689B6803F08003802BF2D000E000BFB2
:10470000002318461837BD4680BD00BF10000020AA
:10471000819F5E1680B586B000AF7860354B1B6810
:10472000354AA2FB03235B0A642202FB03F33B61CD
:10473000FBF70CFF78617B681B687A681268526827
:1047400022F020025A603B69002B06D17B685B6D2A
:1047500043F020027B685A6509E03B69013B3B61FD
:104760007B681B689B6803F00203002BEBD07A691F
:1047700064217868FFF78CFF0346002B05D07B6827
:104780005B6D43F020027B685A657B689B68002B59
:104790000AD10023FB607B681B68DB68FB607B68D9
:1047A0001B689B68FB60FB687B685B6D002B15D109
:1047B0007B6893F85130DBB2042B07D17B68012270
:1047C00083F85120786802F03DFA0EE07B68012200
:1047D00083F851207868FFF75DFD06E07B680122D1
:1047E00083F851207868FFF75FFD00BF1837BD469A
:1047F00080BD00BF10000020F119760580B584B09F
:1048000000AF78607B681B687A681268526822F093
:1048100060025A60FBF79AFE03461A4664217868E4
:10482000FFF7D1FE0346002B05D07B685B6D43F09C
:1048300020027B685A657B689B68002B0AD10023A5
:10484000FB607B681B68DB68FB607B681B689B68A0
:10485000FB60FB687B68012283F851207B685B6DFD
:10486000002B03D1786802F0EDF902E07868FFF7D9
:104870001BFD00BF1037BD4680BD80B582B000AFC4
:1048800078607B68002B01D101231DE07B6893F8E1
:104890003D30DBB2002B06D17B68002283F83C2040
:1048A000786800F015F87B68022283F83D207B6869
:1048B0001A687B6804331946104600F067F97B6874
:1048C000012283F83D20002318460837BD4680BDED
:1048D00080B483B000AF786000BF0C37BD465DF890
:1048E000047B704780B485B000AF78607B681B683C
:1048F0007A681268D26842F00102DA607B681B684D
:104900009B6803F00703FB60FB68062B07D07B68FE
:104910001B687A681268126842F001021A6000236C
:1049200018461437BD465DF8047B704780B582B0E9
:1049300000AF78607B681B681B6903F00203022BE1
:1049400022D17B681B68DB6803F00203022B1BD1BA
:104950007B681B686FF002021A617B6801221A777C
:104960007B681B689B6903F00303002B03D0786806
:1049700000F0EEF805E0786800F0E0F8786800F004
:10498000F1F87B6800221A777B681B681B6903F0CB
:104990000403042B22D17B681B68DB6803F004034B
:1049A000042B1BD17B681B686FF004021A617B68C3
:1049B00002221A777B681B689B6903F44073002B03
:1049C00003D0786800F0C4F805E0786800F0B6F825
:1049D000786800F0C7F87B6800221A777B681B684C
:1049E0001B6903F00803082B22D17B681B68DB6876
:1049F00003F00803082B1BD17B681B686FF00802CB
:104A00001A617B6804221A777B681B68DB6903F0F4
:104A10000303002B03D0786800F09AF805E078686B
:104A200000F08CF8786800F09DF87B6800221A7717
:104A30007B681B681B6903F01003102B22D17B6875
:104A40001B68DB6803F01003102B1BD17B681B680D
:104A50006FF010021A617B6808221A777B681B6866
:104A6000DB6903F44073002B03D0786800F070F822
:104A700005E0786800F062F8786800F073F87B6809
:104A800000221A777B681B681B6903F00103012B66
:104A90000ED17B681B68DB6803F00103012B07D193
:104AA0007B681B686FF001021A61786802F010FBE6
:104AB0007B681B681B6903F08003802B0ED17B6829
:104AC0001B68DB6803F08003802B07D17B681B68C1
:104AD0006FF080021A61786800F002F97B681B6849
:104AE0001B6903F04003402B0ED17B681B68DB6819
:104AF00003F04003402B07D17B681B686FF0400236
:104B00001A61786800F038F87B681B681B6903F04D
:104B10002003202B0ED17B681B68DB6803F0200389
:104B2000202B07D17B681B686FF020021A61786820
:104B300000F0CCF800BF0837BD4680BD80B483B01C
:104B400000AF786000BF0C37BD465DF8047B70474E
:104B500080B483B000AF786000BF0C37BD465DF80D
:104B6000047B704780B483B000AF786000BF0C371F
:104B7000BD465DF8047B704780B483B000AF7860B9
:104B800000BF0C37BD465DF8047B704780B485B02C
:104B900000AF786039607B681B68FB607B68404AC7
:104BA000934213D07B68B3F1804F0FD07B683D4AAE
:104BB00093420BD07B683C4A934207D07B683B4AC8
:104BC000934203D07B683A4A934208D1FB6823F0B2
:104BD0007003FB603B685B68FA681343FB607B68AB
:104BE0002F4A93422BD07B68B3F1804F27D07B684C
:104BF0002C4A934223D07B682B4A93421FD07B6878
:104C00002A4A93421BD07B68294A934217D07B687B
:104C1000284A934213D07B68274A93420FD07B687F
:104C2000264A93420BD07B68254A934207D07B6883
:104C3000244A934203D07B68234A934208D1FB68FD
:104C400023F44073FB603B68DB68FA681343FB6046
:104C5000FB6823F080023B685B691343FB607B6861
:104C6000FA681A603B689A687B68DA623B681A687F
:104C70007B689A627B680A4A934203D07B680C4A3D
:104C8000934203D13B681A697B681A637B680122EF
:104C90005A6100BF1437BD465DF8047B704700BF02
:104CA000000001400004004000080040000C0040EB
:104CB0000004014000400140004401400048014020
:104CC00000180040001C00400020004080B483B069
:104CD00000AF786000BF0C37BD465DF8047B7047BD
:104CE00080B483B000AF786000BF0C37BD465DF87C
:104CF000047B704780B485B000AF0346FB8000237F
:104D0000FB60B7F90630842B05D0B7F90620FB68A5
:104D100013440333FB60FB6818461437BD465DF847
:104D2000047B704780B500AF00F070FF0023184689
:104D300080BDF0B589B004AF786039607B685B698D
:104D4000002B20D07B689B69002B1CD07B685C68A3
:104D50007B681D687B681E697B68B3F9083018465C
:104D6000FFF7C8FF01467B685B697A689269029227
:104D7000019300913B6832462946204600F08CFDA5
:104D80000346FB601CE07B685C687B681D687B6891
:104D90001B699EB27B68B3F908301846FFF7AAFF7B
:104DA000024607F10C03019300923B683246294604
:104DB000204600F0CAFD0346012B01D0002300E08D
:104DC000FB6818461437BD46F0BD80B584B000AF0F
:104DD00078607B68FB60FB68002B01D0FB6800E01B
:104DE0000123184600F0DEFE002318461037BD46AA
:104DF00080BD80B483B000AF78607B6803F10802A7
:104E00007B685A607B684FF0FF329A607B6803F1E1
:104E100008027B68DA607B6803F108027B681A612C
:104E20007B6800221A6000BF0C37BD465DF8047B2A
:104E3000704780B483B000AF78607B6800221A614D
:104E400000BF0C37BD465DF8047B704780B485B069
:104E500000AF786039607B685B68FB603B68FA682C
:104E60005A60FB689A683B689A60FB689B683A687E
:104E70005A60FB683A689A603B687A681A617B6896
:104E80001B685A1C7B681A6000BF1437BD465DF86A
:104E9000047B704780B485B000AF786039603B68B0
:104EA0001B68BB60BB68B3F1FF3F03D17B681B6924
:104EB000FB600CE07B680833FB6002E0FB685B682A
:104EC000FB60FB685B681A68BB689A42F6D9FB68AE
:104ED0005A683B685A603B685B683A689A603B680E
:104EE000FA689A60FB683A685A603B687A681A61A7
:104EF0007B681B685A1C7B681A6000BF1437BD466C
:104F00005DF8047B704780B485B000AF78607B6843
:104F10001B69FB607B685B687A6892689A607B6853
:104F20009B687A6852685A60FB685A687B689A4244
:104F300003D17B689A68FB685A607B6800221A611B
:104F4000FB681B685A1EFB681A60FB681B681846E2
:104F50001437BD465DF8047B7047000080B485B00F
:104F600000AFF860B9607A60FB68043BFB60FB68E7
:104F70004FF080721A60FB68043BFB60BB6823F053
:104F80000102FB681A60FB68043BFB600C4AFB688B
:104F90001A60FB68143BFB607A68FB681A60FB6868
:104FA000043BFB60FB686FF002021A60FB68203B69
:104FB000FB60FB6818461437BD465DF8047B7047FC
:104FC000C54F000880B485B000AF00237B60114B53
:104FD0001B68B3F1FF3F09D04FF0500383F31188F2
:104FE000BFF36F8FBFF34F8FFB60FEE74FF05003AF
:104FF00083F31188BFF36F8FBFF34F8FBB6000BF88
:105000007B68002BFCD000BF1437BD465DF8047BE5
:10501000704700BF080000200000000000000000F2
:10502000074B19680868B0E8F04F80F30988BFF3B0
:105030006F8F4FF0000080F311887047AFF300804E
:10504000503C002000BF00BF08480068006880F3A3
:1050500008884FF0000080F3148862B661B6BFF391
:105060004F8FBFF36F8F00DF00BF00BF08ED00E080
:1050700080B586B000AF444B1B68444A934209D1C7
:105080004FF0500383F31188BFF36F8FBFF34F8F3F
:105090003B61FEE73C4B1B683D4A934209D14FF010
:1050A000500383F31188BFF36F8FBFF34F8FFB6003
:1050B000FEE7384B7B617B691B78DBB27B607B69E9
:1050C000FF221A707B691B78DBB2FB70FB78DBB2C6
:1050D00003F05003DAB2304B1A70304B07221A60DB
:1050E00009E02E4B1B68013B2C4A1360FB78DBB2B6
:1050F0005B00DBB2FB70FB78DBB203F08003802B3C
:10510000EFD0264B1B68C3F10703042B09D04FF0E7
:10511000500383F31188BFF36F8FBFF34F8FBB60D2
:10512000FEE71E4B1B681B021C4A13601B4B1B68CF
:1051300003F4E063194A13607B68DAB27B691A7082
:10514000174A174B1B6843F470031360144A144B3F
:105150001B6843F07043136000F0D6F8114B002237
:105160001A6000F0F5F8104A0F4B1B6843F04043FB
:105170001360FFF769FF00F00DFFFFF723FF002327
:1051800018461837BD4680BD00ED00E071C20F41E2
:1051900070C20F4100E400E0300000203400002025
:1051A00020ED00E00800002034EF00E080B483B080
:1051B00000AF4FF0500383F31188BFF36F8FBFF33D
:1051C0004F8F7B600E4B1B6801330D4A13600C4BF5
:1051D0001B68012B0ED10B4B1B68DBB2002B09D0D7
:1051E0004FF0500383F31188BFF36F8FBFF34F8FDE
:1051F0003B60FEE700BF0C37BD465DF8047B70479F
:105200000800002004ED00E080B483B000AF114B33
:105210001B68002B09D14FF0500383F31188BFF3B3
:105220006F8FBFF34F8F7B60FEE70A4B1B68013B1C
:10523000084A1360074B1B68002B04D100233B6016
:105240003B6883F3118800BF0C37BD465DF8047BD3
:10525000704700BF080000200000000000000000B0
:10526000EFF30980BFF36F8F154B1A681EF0100F14
:1052700008BF20ED108A20E9F04F10602DE90900E9
:105280004FF0500080F31188BFF34F8FBFF36F8F43
:1052900000F080FE4FF0000080F3118809BC19680F
:1052A0000868B0E8F04F1EF0100F08BFB0EC108A8D
:1052B00080F30988BFF36F8F704700BFAFF30080A2
:1052C000503C002000BF00BF80B582B000AF4FF05F
:1052D000500383F31188BFF36F8FBFF34F8F7B6051
:1052E00000F09CFD0346002B03D0064B4FF080528C
:1052F0001A6000233B603B6883F3118800BF0837C6
:10530000BD4680BD04ED00E080B400AF0B4B002231
:105310001A600B4B00221A600A4A0B4B1B680B49A0
:10532000A1FB03139B09013B1360044B07221A6086
:1053300000BFBD465DF8047B704700BF10E000E091
:1053400018E000E014E000E010000020D34D6210EF
:10535000DFF80C00016841F470010160704700BF84
:1053600088ED00E080B58AB000AF78600023FB6173
:1053700000F0AAFC574B1B68002B01D100F00CF980
:10538000554B1A687B681340002B40F08C807B687B
:10539000002B1CD008227B6813447B607B6803F0E1
:1053A0000703002B13D07B6823F0070308337B60CF
:1053B0007B6803F00703002B09D04FF0500383F301
:1053C0001188BFF36F8FBFF34F8F7B61FEE77B6860
:1053D000002B68D0414B1B687A689A4263D8404BD7
:1053E0003B623F4B1B687B6204E07B6A3B627B6AEB
:1053F0001B687B627B6A5A687B689A4203D27B6A2D
:105400001B68002BF1D1334B1B687A6A9A424AD051
:105410003B6A1B6808221344FB617B6A1A683B6A7B
:105420001A607B6A5A687B68D21A08235B009A422A
:105430001ED97A6A7B681344BB61BB6903F007031A
:10544000002B09D04FF0500383F31188BFF36F8F07
:10545000BFF34F8F3B61FEE77B6A5A687B68D21AC5
:10546000BB695A607B6A7A685A60B86900F0F6F8DE
:105470001A4B1A687B6A5B68D31A184A1360174B79
:105480001A68184B1B689A4203D2144B1B68154AC2
:1054900013607B6A5A68104B1B681A437B6A5A6018
:1054A0007B6A00221A6000F01DFCFB6903F0070311
:1054B000002B09D04FF0500383F31188BFF36F8F97
:1054C000BFF34F8FFB60FEE7FB6918462837BD46E8
:1054D00080BD00BF403C00204C3C0020443C0020EC
:1054E000383C0020483C002080B586B000AF786092
:1054F0007B687B617B68002B46D008235B427A691E
:1055000013447B617B693B613B695A68204B1B6894
:105510001340002B09D14FF0500383F31188BFF3E0
:105520006F8FBFF34F8FFB60FEE73B691B68002B5B
:1055300009D04FF0500383F31188BFF36F8FBFF38F
:105540004F8FBB60FEE73B695A68114B1B681340E5
:10555000002B19D03B691B68002B15D13B695A6899
:105560000B4B1B68DB431A403B695A6000F0ACFBF5
:105570003B695A68074B1B681344064A1360386935
:1055800000F06CF800F0AEFB00BF1837BD4680BDE0
:105590004C3C0020443C002080B485B000AF4FF468
:1055A0007053BB60274BFB60FB6803F00703002BC5
:1055B0000CD0FB680733FB60FB6823F00703FB603C
:1055C000BA68FB68D31A1F4A1344BB60FB687B6050
:1055D0001D4A7B6813601C4B00225A607A68BB68C6
:1055E0001344FB600822FB689B1AFB60FB6823F0F6
:1055F0000703FB60FB68154A1360144B1B6800220D
:105600005A60124B1B6800221A607B683B603B6843
:10561000FA68D21A3B685A600C4B1A683B681A60E9
:105620003B685B680A4A13603B685B68094A136021
:10563000094B4FF000421A6000BF1437BD465DF8B9
:10564000047B704738000020383C0020403C00209C
:10565000483C0020443C00204C3C002080B485B0F5
:1056600000AF7860284BFB6002E0FB681B68FB60C2
:10567000FB681A687B689A42F7D3FB68BB60FB68DB
:105680005B68BA681A447B689A4208D1FB685A681A
:105690007B685B681A44FB685A60FB687B607B68C8
:1056A000BB607B685B68BA681A44FB681B689A42F7
:1056B00018D1FB681A68154B1B689A420DD07B689D
:1056C0005A68FB681B685B681A447B685A60FB6811
:1056D0001B681A687B681A6008E00C4B1A687B68C4
:1056E0001A6003E0FB681A687B681A60FA687B68D6
:1056F0009A4202D0FB687A681A6000BF1437BD4630
:105700005DF8047B704700BF383C0020403C00201F
:1057100080B584B000AF786039607B68FB60FB685F
:10572000002B09D14FF0500383F31188BFF36F8F23
:10573000BFF34F8FBB60FEE7FFF738FDFB681A68C9
:10574000FB68DB6BF968096C01FB03F31A44FB6827
:105750005A60FB6800229A63FB681A68FB689A60CB
:10576000FB681A68FB68DB6B013BF968096C01FB9D
:1057700003F31A44FB68DA60FB68FF2283F84420D5
:10578000FB68FF2283F845203B68002B14D1FB689F
:105790001B69002B1AD0FB681033184600F054FC2C
:1057A0000346002B12D00D4B4FF080521A60BFF30E
:1057B0004F8FBFF36F8F09E0FB6810331846FFF778
:1057C00018FBFB6824331846FFF713FBFFF71CFD9B
:1057D000012318461037BD4680BD00BF04ED00E030
:1057E00080B58AB002AFF860B9601346FB71FB6800
:1057F000002B09D14FF0500383F31188BFF36F8F53
:10580000BFF34F8F3B61FEE7BB68002B02D1002343
:10581000FB6104E0FB68BA6802FB03F3FB61FB6910
:1058200048331846FFF79EFDB861BB69002B0FD0C7
:10583000BB6948337B61BB69002283F84620FA7953
:10584000BB69009313467A69B968F86800F005F8F7
:10585000BB6918462037BD4680BD80B584B000AF17
:10586000F860B9607A60FB70BB68002B03D1BB693C
:10587000BA691A6002E0BB697A681A60BB69FA68A3
:10588000DA63BB69BA681A640121B869FFF740FF9F
:1058900000BF1037BD4680BD80B58EB004AFF86044
:1058A000B9607A603B607B6B002B09D14FF05003ED
:1058B00083F31188BFF36F8FBFF34F8F3B62FEE717
:1058C000BB6B002B09D14FF0500383F31188BFF35A
:1058D0006F8FBFF34F8FFB61FEE754233B613B6942
:1058E000542B09D04FF0500383F31188BFF36F8F0F
:1058F000BFF34F8FBB61FEE7BB6B002B1ED07B6BF2
:10590000002B1BD0BB6B7B627B6A7A6B1A637B6A52
:10591000022283F85120002303937B6A029307F14C
:10592000140301933B6B00933B687A68B968F8688D
:1059300000F050F8786A00F0CBF801E000237B61BA
:105940007B6918462837BD4680BD80B58CB004AF52
:10595000F860B9603B601346FB80FB889B001846EB
:10596000FFF700FD78617B69002B0ED05420FFF714
:10597000F9FCF861FB69002B03D0FB697A691A63B3
:1059800005E07869FFF7B0FD01E00023FB61FB69EA
:10599000002B17D0FB69002283F85120FA880023DE
:1059A0000393FB690293FB6A0193BB6A00933B6814
:1059B000B968F86800F00EF8F86900F089F801237A
:1059C000BB6102E04FF0FF33BB61BB691846203773
:1059D000BD4680BD80B588B000AFF860B9607A6020
:1059E0003B603B6B1A6B7B6803F18043013B9B0080
:1059F0001344BB61BB6923F00703BB61BB6903F0C0
:105A00000703002B09D04FF0500383F31188BFF335
:105A10006F8FBFF34F8F7B61FEE70023FB6112E0C6
:105A2000BA68FB69134419783A6BFB691344343341
:105A30000A461A70BA68FB6913441B78002B06D01B
:105A4000FB690133FB61FB690F2BE9D900E000BF63
:105A50003B6B002283F84320BB6A062B01D9062347
:105A6000BB623B6BBA6ADA623B6BBA6A5A643B6BE5
:105A700000229A643B6B04331846FFF7DAF93B6B5C
:105A800018331846FFF7D5F93B6B3A6B1A61BB6ABE
:105A9000C3F107023B6B9A613B6B3A6B5A623B6BFB
:105AA0000022DA643B6B002283F850203A68F968E0
:105AB000B869FFF753FA02463B6B1A60FB6A002B8A
:105AC00002D0FB6A3A6B1A6000BF2037BD4680BD2A
:105AD00080B582B000AF7860FFF768FB2A4B1B6887
